{
    "_format": "hh-sol-artifact-1",
    "contractName": "Fauset",
    "sourceName": "contracts/Fauset.sol",
    "abi": [
        {
            "inputs": [
                {
                    "internalType": "address",
                    "name": "busd_addr",
                    "type": "address"
                }
            ],
            "stateMutability": "nonpayable",
            "type": "constructor"
        },
        {
            "inputs": [],
            "name": "NotWalletOwner",
            "type": "error"
        },
        {
            "inputs": [],
            "name": "RequestTooLarge",
            "type": "error"
        },
        {
            "inputs": [
                {
                    "internalType": "address",
                    "name": "",
                    "type": "address"
                }
            ],
            "name": "timer",
            "outputs": [
                {
                    "internalType": "uint256",
                    "name": "",
                    "type": "uint256"
                }
            ],
            "stateMutability": "view",
            "type": "function"
        },
        {
            "inputs": [
                {
                    "internalType": "address",
                    "name": "addr",
                    "type": "address"
                },
                {
                    "internalType": "uint256",
                    "name": "amount",
                    "type": "uint256"
                }
            ],
            "name": "withdraw",
            "outputs": [],
            "stateMutability": "nonpayable",
            "type": "function"
        }
    ],
    "bytecode": "0x608060405234801561001057600080fd5b5060405161071e38038061071e833981810160405281019061003291906100db565b806000806101000a81548173ffffffffffffffffffffffffffffffffffffffff021916908373ffffffffffffffffffffffffffffffffffffffff16021790555050610108565b600080fd5b600073ffffffffffffffffffffffffffffffffffffffff82169050919050565b60006100a88261007d565b9050919050565b6100b88161009d565b81146100c357600080fd5b50565b6000815190506100d5816100af565b92915050565b6000602082840312156100f1576100f0610078565b5b60006100ff848285016100c6565b91505092915050565b610607806101176000396000f3fe608060405234801561001057600080fd5b50600436106100365760003560e01c8063ec45787c1461003b578063f3fef3a31461006b575b600080fd5b61005560048036038101906100509190610365565b610087565b60405161006291906103ab565b60405180910390f35b610085600480360381019061008091906103f2565b61009f565b005b60016020528060005260406000206000915090505481565b3373ffffffffffffffffffffffffffffffffffffffff168273ffffffffffffffffffffffffffffffffffffffff1614610104576040517fc4073afc00000000000000000000000000000000000000000000000000000000815260040160405180910390fd5b69021e19e0c9bab2400000811115610148576040517fe9311a8500000000000000000000000000000000000000000000000000000000815260040160405180910390fd5b600160003373ffffffffffffffffffffffffffffffffffffffff1673ffffffffffffffffffffffffffffffffffffffff168152602001908152602001600020544211156102fe5762015180600160003373ffffffffffffffffffffffffffffffffffffffff1673ffffffffffffffffffffffffffffffffffffffff168152602001908152602001600020546101dd9190610461565b600160003373ffffffffffffffffffffffffffffffffffffffff1673ffffffffffffffffffffffffffffffffffffffff1681526020019081526020016000208190555060008054906101000a900473ffffffffffffffffffffffffffffffffffffffff1673ffffffffffffffffffffffffffffffffffffffff1663a9059cbb33836040518363ffffffff1660e01b815260040161027b9291906104c6565b6020604051808303816000875af115801561029a573d6000803e3d6000fd5b505050506040513d601f19601f820116820180604052508101906102be9190610527565b6102fd576040517f08c379a00000000000000000000000000000000000000000000000000000000081526004016102f4906105b1565b60405180910390fd5b5b5050565b600080fd5b600073ffffffffffffffffffffffffffffffffffffffff82169050919050565b600061033282610307565b9050919050565b61034281610327565b811461034d57600080fd5b50565b60008135905061035f81610339565b92915050565b60006020828403121561037b5761037a610302565b5b600061038984828501610350565b91505092915050565b6000819050919050565b6103a581610392565b82525050565b60006020820190506103c0600083018461039c565b92915050565b6103cf81610392565b81146103da57600080fd5b50565b6000813590506103ec816103c6565b92915050565b6000806040838503121561040957610408610302565b5b600061041785828601610350565b9250506020610428858286016103dd565b9150509250929050565b7f4e487b7100000000000000000000000000000000000000000000000000000000600052601160045260246000fd5b600061046c82610392565b915061047783610392565b9250827fffffffffffffffffffffffffffffffffffffffffffffffffffffffffffffffff038211156104ac576104ab610432565b5b828201905092915050565b6104c081610327565b82525050565b60006040820190506104db60008301856104b7565b6104e8602083018461039c565b9392505050565b60008115159050919050565b610504816104ef565b811461050f57600080fd5b50565b600081519050610521816104fb565b92915050565b60006020828403121561053d5761053c610302565b5b600061054b84828501610512565b91505092915050565b600082825260208201905092915050565b7f6275736420746f6b656e207472616e73666572206661696c6564000000000000600082015250565b600061059b601a83610554565b91506105a682610565565b602082019050919050565b600060208201905081810360008301526105ca8161058e565b905091905056fea26469706673582212208eae9ebb1d841cd736f064b3b263e5cad93112c4c157d687c2941998166bd3c764736f6c634300080a0033",
    "linkReferences": {},
    "deployedLinkReferences": {}
}