{
  "_format": "hh-sol-artifact-1",
  "contractName": "BakerNFTs",
  "sourceName": "contracts/NFT.sol",
  "abi": [
    {
      "inputs": [
        {
          "internalType": "string",
          "name": "baseURI",
          "type": "string"
        },
        {
          "internalType": "address",
          "name": "market",
          "type": "address"
        },
        {
          "internalType": "string",
          "name": "name",
          "type": "string"
        },
        {
          "internalType": "string",
          "name": "shortName",
          "type": "string"
        },
        {
          "internalType": "uint256",
          "name": "nftPrice",
          "type": "uint256"
        }
      ],
      "stateMutability": "nonpayable",
      "type": "constructor"
    },
    {
      "anonymous": false,
      "inputs": [
        {
          "indexed": true,
          "internalType": "address",
          "name": "owner",
          "type": "address"
        },
        {
          "indexed": true,
          "internalType": "address",
          "name": "approved",
          "type": "address"
        },
        {
          "indexed": true,
          "internalType": "uint256",
          "name": "tokenId",
          "type": "uint256"
        }
      ],
      "name": "Approval",
      "type": "event"
    },
    {
      "anonymous": false,
      "inputs": [
        {
          "indexed": true,
          "internalType": "address",
          "name": "owner",
          "type": "address"
        },
        {
          "indexed": true,
          "internalType": "address",
          "name": "operator",
          "type": "address"
        },
        {
          "indexed": false,
          "internalType": "bool",
          "name": "approved",
          "type": "bool"
        }
      ],
      "name": "ApprovalForAll",
      "type": "event"
    },
    {
      "anonymous": false,
      "inputs": [
        {
          "indexed": true,
          "internalType": "uint256",
          "name": "tokenId",
          "type": "uint256"
        },
        {
          "indexed": true,
          "internalType": "address",
          "name": "addr",
          "type": "address"
        }
      ],
      "name": "Minted",
      "type": "event"
    },
    {
      "anonymous": false,
      "inputs": [
        {
          "indexed": true,
          "internalType": "address",
          "name": "previousOwner",
          "type": "address"
        },
        {
          "indexed": true,
          "internalType": "address",
          "name": "newOwner",
          "type": "address"
        }
      ],
      "name": "OwnershipTransferred",
      "type": "event"
    },
    {
      "anonymous": false,
      "inputs": [
        {
          "indexed": true,
          "internalType": "address",
          "name": "from",
          "type": "address"
        },
        {
          "indexed": true,
          "internalType": "address",
          "name": "to",
          "type": "address"
        },
        {
          "indexed": true,
          "internalType": "uint256",
          "name": "tokenId",
          "type": "uint256"
        }
      ],
      "name": "Transfer",
      "type": "event"
    },
    {
      "inputs": [
        {
          "internalType": "address",
          "name": "to",
          "type": "address"
        },
        {
          "internalType": "uint256",
          "name": "tokenId",
          "type": "uint256"
        }
      ],
      "name": "approve",
      "outputs": [],
      "stateMutability": "nonpayable",
      "type": "function"
    },
    {
      "inputs": [
        {
          "internalType": "address",
          "name": "owner",
          "type": "address"
        }
      ],
      "name": "balanceOf",
      "outputs": [
        {
          "internalType": "uint256",
          "name": "",
          "type": "uint256"
        }
      ],
      "stateMutability": "view",
      "type": "function"
    },
    {
      "inputs": [
        {
          "internalType": "uint256",
          "name": "tokenId",
          "type": "uint256"
        }
      ],
      "name": "getApproved",
      "outputs": [
        {
          "internalType": "address",
          "name": "",
          "type": "address"
        }
      ],
      "stateMutability": "view",
      "type": "function"
    },
    {
      "inputs": [
        {
          "internalType": "address",
          "name": "owner",
          "type": "address"
        },
        {
          "internalType": "address",
          "name": "operator",
          "type": "address"
        }
      ],
      "name": "isApprovedForAll",
      "outputs": [
        {
          "internalType": "bool",
          "name": "",
          "type": "bool"
        }
      ],
      "stateMutability": "view",
      "type": "function"
    },
    {
      "inputs": [],
      "name": "marketAddress",
      "outputs": [
        {
          "internalType": "address",
          "name": "",
          "type": "address"
        }
      ],
      "stateMutability": "view",
      "type": "function"
    },
    {
      "inputs": [],
      "name": "mint",
      "outputs": [],
      "stateMutability": "nonpayable",
      "type": "function"
    },
    {
      "inputs": [
        {
          "internalType": "uint256",
          "name": "num",
          "type": "uint256"
        }
      ],
      "name": "mintMany",
      "outputs": [],
      "stateMutability": "nonpayable",
      "type": "function"
    },
    {
      "inputs": [],
      "name": "name",
      "outputs": [
        {
          "internalType": "string",
          "name": "",
          "type": "string"
        }
      ],
      "stateMutability": "view",
      "type": "function"
    },
    {
      "inputs": [],
      "name": "owner",
      "outputs": [
        {
          "internalType": "address",
          "name": "",
          "type": "address"
        }
      ],
      "stateMutability": "view",
      "type": "function"
    },
    {
      "inputs": [
        {
          "internalType": "uint256",
          "name": "tokenId",
          "type": "uint256"
        }
      ],
      "name": "ownerOf",
      "outputs": [
        {
          "internalType": "address",
          "name": "",
          "type": "address"
        }
      ],
      "stateMutability": "view",
      "type": "function"
    },
    {
      "inputs": [],
      "name": "price",
      "outputs": [
        {
          "internalType": "uint256",
          "name": "",
          "type": "uint256"
        }
      ],
      "stateMutability": "view",
      "type": "function"
    },
    {
      "inputs": [],
      "name": "renounceOwnership",
      "outputs": [],
      "stateMutability": "nonpayable",
      "type": "function"
    },
    {
      "inputs": [
        {
          "internalType": "address",
          "name": "from",
          "type": "address"
        },
        {
          "internalType": "address",
          "name": "to",
          "type": "address"
        },
        {
          "internalType": "uint256",
          "name": "tokenId",
          "type": "uint256"
        }
      ],
      "name": "safeTransferFrom",
      "outputs": [],
      "stateMutability": "nonpayable",
      "type": "function"
    },
    {
      "inputs": [
        {
          "internalType": "address",
          "name": "from",
          "type": "address"
        },
        {
          "internalType": "address",
          "name": "to",
          "type": "address"
        },
        {
          "internalType": "uint256",
          "name": "tokenId",
          "type": "uint256"
        },
        {
          "internalType": "bytes",
          "name": "data",
          "type": "bytes"
        }
      ],
      "name": "safeTransferFrom",
      "outputs": [],
      "stateMutability": "nonpayable",
      "type": "function"
    },
    {
      "inputs": [
        {
          "internalType": "address",
          "name": "operator",
          "type": "address"
        },
        {
          "internalType": "bool",
          "name": "approved",
          "type": "bool"
        }
      ],
      "name": "setApprovalForAll",
      "outputs": [],
      "stateMutability": "nonpayable",
      "type": "function"
    },
    {
      "inputs": [
        {
          "internalType": "string",
          "name": "val",
          "type": "string"
        }
      ],
      "name": "setBaseURI",
      "outputs": [],
      "stateMutability": "nonpayable",
      "type": "function"
    },
    {
      "inputs": [
        {
          "internalType": "uint256",
          "name": "val",
          "type": "uint256"
        }
      ],
      "name": "setPrice",
      "outputs": [],
      "stateMutability": "nonpayable",
      "type": "function"
    },
    {
      "inputs": [
        {
          "internalType": "bytes4",
          "name": "interfaceId",
          "type": "bytes4"
        }
      ],
      "name": "supportsInterface",
      "outputs": [
        {
          "internalType": "bool",
          "name": "",
          "type": "bool"
        }
      ],
      "stateMutability": "view",
      "type": "function"
    },
    {
      "inputs": [],
      "name": "symbol",
      "outputs": [
        {
          "internalType": "string",
          "name": "",
          "type": "string"
        }
      ],
      "stateMutability": "view",
      "type": "function"
    },
    {
      "inputs": [
        {
          "internalType": "uint256",
          "name": "tokenId",
          "type": "uint256"
        }
      ],
      "name": "tokenURI",
      "outputs": [
        {
          "internalType": "string",
          "name": "",
          "type": "string"
        }
      ],
      "stateMutability": "view",
      "type": "function"
    },
    {
      "inputs": [
        {
          "internalType": "address",
          "name": "from",
          "type": "address"
        },
        {
          "internalType": "address",
          "name": "to",
          "type": "address"
        },
        {
          "internalType": "uint256",
          "name": "tokenId",
          "type": "uint256"
        }
      ],
      "name": "transferFrom",
      "outputs": [],
      "stateMutability": "nonpayable",
      "type": "function"
    },
    {
      "inputs": [
        {
          "internalType": "address",
          "name": "newOwner",
          "type": "address"
        }
      ],
      "name": "transferOwnership",
      "outputs": [],
      "stateMutability": "nonpayable",
      "type": "function"
    }
  ],
  "bytecode": "0x60806040523480156200001157600080fd5b506040516200328c3803806200328c8339818101604052810190620000379190620004bc565b8282816000908051906020019062000051929190620001cf565b5080600190805190602001906200006a929190620001cf565b5050506200008d620000816200010160201b60201c565b6200010960201b60201c565b600160088190555084600a9080519060200190620000ad929190620001cf565b5083600b60006101000a81548173ffffffffffffffffffffffffffffffffffffffff021916908373ffffffffffffffffffffffffffffffffffffffff16021790555080600c81905550505050505062000606565b600033905090565b6000600760009054906101000a900473ffffffffffffffffffffffffffffffffffffffff16905081600760006101000a81548173ffffffffffffffffffffffffffffffffffffffff021916908373ffffffffffffffffffffffffffffffffffffffff1602179055508173ffffffffffffffffffffffffffffffffffffffff168173ffffffffffffffffffffffffffffffffffffffff167f8be0079c531659141344cd1fd0a4f28419497f9722a3daafe3b4186f6b6457e060405160405180910390a35050565b828054620001dd90620005d0565b90600052602060002090601f0160209004810192826200020157600085556200024d565b82601f106200021c57805160ff19168380011785556200024d565b828001600101855582156200024d579182015b828111156200024c5782518255916020019190600101906200022f565b5b5090506200025c919062000260565b5090565b5b808211156200027b57600081600090555060010162000261565b5090565b6000604051905090565b600080fd5b600080fd5b600080fd5b600080fd5b6000601f19601f8301169050919050565b7f4e487b7100000000000000000000000000000000000000000000000000000000600052604160045260246000fd5b620002e8826200029d565b810181811067ffffffffffffffff821117156200030a5762000309620002ae565b5b80604052505050565b60006200031f6200027f565b90506200032d8282620002dd565b919050565b600067ffffffffffffffff82111562000350576200034f620002ae565b5b6200035b826200029d565b9050602081019050919050565b60005b83811015620003885780820151818401526020810190506200036b565b8381111562000398576000848401525b50505050565b6000620003b5620003af8462000332565b62000313565b905082815260208101848484011115620003d457620003d362000298565b5b620003e184828562000368565b509392505050565b600082601f83011262000401576200040062000293565b5b8151620004138482602086016200039e565b91505092915050565b600073ffffffffffffffffffffffffffffffffffffffff82169050919050565b600062000449826200041c565b9050919050565b6200045b816200043c565b81146200046757600080fd5b50565b6000815190506200047b8162000450565b92915050565b6000819050919050565b620004968162000481565b8114620004a257600080fd5b50565b600081519050620004b6816200048b565b92915050565b600080600080600060a08688031215620004db57620004da62000289565b5b600086015167ffffffffffffffff811115620004fc57620004fb6200028e565b5b6200050a88828901620003e9565b95505060206200051d888289016200046a565b945050604086015167ffffffffffffffff8111156200054157620005406200028e565b5b6200054f88828901620003e9565b935050606086015167ffffffffffffffff8111156200057357620005726200028e565b5b6200058188828901620003e9565b92505060806200059488828901620004a5565b9150509295509295909350565b7f4e487b7100000000000000000000000000000000000000000000000000000000600052602260045260246000fd5b60006002820490506001821680620005e957607f821691505b602082108114156200060057620005ff620005a1565b5b50919050565b612c7680620006166000396000f3fe608060405234801561001057600080fd5b50600436106101425760003560e01c8063715018a6116100b8578063a035b1fe1161007c578063a035b1fe1461033b578063a22cb46514610359578063b88d4fde14610375578063c87b56dd14610391578063e985e9c5146103c1578063f2fde38b146103f157610142565b8063715018a6146102bb5780638da5cb5b146102c557806391b7f5ed146102e357806395623641146102ff57806395d89b411461031d57610142565b80631249c58b1161010a5780631249c58b146101fd57806323b872dd1461020757806342842e0e1461022357806355f804b31461023f5780636352211e1461025b57806370a082311461028b57610142565b806301ffc9a714610147578063059513a61461017757806306fdde0314610193578063081812fc146101b1578063095ea7b3146101e1575b600080fd5b610161600480360381019061015c9190611aeb565b61040d565b60405161016e9190611b33565b60405180910390f35b610191600480360381019061018c9190611b84565b6104ef565b005b61019b610521565b6040516101a89190611c4a565b60405180910390f35b6101cb60048036038101906101c69190611b84565b6105b3565b6040516101d89190611cad565b60405180910390f35b6101fb60048036038101906101f69190611cf4565b6105f9565b005b610205610711565b005b610221600480360381019061021c9190611d34565b6107ae565b005b61023d60048036038101906102389190611d34565b61080e565b005b61025960048036038101906102549190611ebc565b61082e565b005b61027560048036038101906102709190611b84565b610850565b6040516102829190611cad565b60405180910390f35b6102a560048036038101906102a09190611f05565b610902565b6040516102b29190611f41565b60405180910390f35b6102c36109ba565b005b6102cd6109ce565b6040516102da9190611cad565b60405180910390f35b6102fd60048036038101906102f89190611b84565b6109f8565b005b610307610a0a565b6040516103149190611cad565b60405180910390f35b610325610a30565b6040516103329190611c4a565b60405180910390f35b610343610ac2565b6040516103509190611f41565b60405180910390f35b610373600480360381019061036e9190611f88565b610ac8565b005b61038f600480360381019061038a9190612069565b610ade565b005b6103ab60048036038101906103a69190611b84565b610b40565b6040516103b89190611c4a565b60405180910390f35b6103db60048036038101906103d691906120ec565b610bc5565b6040516103e89190611b33565b60405180910390f35b61040b60048036038101906104069190611f05565b610c59565b005b60007f80ac58cd000000000000000000000000000000000000000000000000000000007bffffffffffffffffffffffffffffffffffffffffffffffffffffffff1916827bffffffffffffffffffffffffffffffffffffffffffffffffffffffff191614806104d857507f5b5e139f000000000000000000000000000000000000000000000000000000007bffffffffffffffffffffffffffffffffffffffffffffffffffffffff1916827bffffffffffffffffffffffffffffffffffffffffffffffffffffffff1916145b806104e857506104e782610cdd565b5b9050919050565b6104f7610d47565b60005b8181101561051d5761050a610711565b80806105159061215b565b9150506104fa565b5050565b606060008054610530906121d3565b80601f016020809104026020016040519081016040528092919081815260200182805461055c906121d3565b80156105a95780601f1061057e576101008083540402835291602001916105a9565b820191906000526020600020905b81548152906001019060200180831161058c57829003601f168201915b5050505050905090565b60006105be82610dc5565b6004600083815260200190815260200160002060009054906101000a900473ffffffffffffffffffffffffffffffffffffffff169050919050565b600061060482610850565b90508073ffffffffffffffffffffffffffffffffffffffff168373ffffffffffffffffffffffffffffffffffffffff161415610675576040517f08c379a000000000000000000000000000000000000000000000000000000000815260040161066c90612277565b60405180910390fd5b8073ffffffffffffffffffffffffffffffffffffffff16610694610e10565b73ffffffffffffffffffffffffffffffffffffffff1614806106c357506106c2816106bd610e10565b610bc5565b5b610702576040517f08c379a00000000000000000000000000000000000000000000000000000000081526004016106f990612309565b60405180910390fd5b61070c8383610e18565b505050565b610719610d47565b60006107256009610ed1565b90506107313382610edf565b61073b60096110b9565b610767600b60009054906101000a900473ffffffffffffffffffffffffffffffffffffffff16826105f9565b3373ffffffffffffffffffffffffffffffffffffffff16817fb9203d657e9c0ec8274c818292ab0f58b04e1970050716891770eb1bab5d655e60405160405180910390a350565b6107bf6107b9610e10565b826110cf565b6107fe576040517f08c379a00000000000000000000000000000000000000000000000000000000081526004016107f59061239b565b60405180910390fd5b610809838383611164565b505050565b61082983838360405180602001604052806000815250610ade565b505050565b610836610d47565b80600a908051906020019061084c9291906119dc565b5050565b6000806002600084815260200190815260200160002060009054906101000a900473ffffffffffffffffffffffffffffffffffffffff169050600073ffffffffffffffffffffffffffffffffffffffff168173ffffffffffffffffffffffffffffffffffffffff1614156108f9576040517f08c379a00000000000000000000000000000000000000000000000000000000081526004016108f090612407565b60405180910390fd5b80915050919050565b60008073ffffffffffffffffffffffffffffffffffffffff168273ffffffffffffffffffffffffffffffffffffffff161415610973576040517f08c379a000000000000000000000000000000000000000000000000000000000815260040161096a90612499565b60405180910390fd5b600360008373ffffffffffffffffffffffffffffffffffffffff1673ffffffffffffffffffffffffffffffffffffffff168152602001908152602001600020549050919050565b6109c2610d47565b6109cc60006113cb565b565b6000600760009054906101000a900473ffffffffffffffffffffffffffffffffffffffff16905090565b610a00610d47565b80600c8190555050565b600b60009054906101000a900473ffffffffffffffffffffffffffffffffffffffff1681565b606060018054610a3f906121d3565b80601f0160208091040260200160405190810160405280929190818152602001828054610a6b906121d3565b8015610ab85780601f10610a8d57610100808354040283529160200191610ab8565b820191906000526020600020905b815481529060010190602001808311610a9b57829003601f168201915b5050505050905090565b600c5481565b610ada610ad3610e10565b8383611491565b5050565b610aef610ae9610e10565b836110cf565b610b2e576040517f08c379a0000000000000000000000000000000000000000000000000000000008152600401610b259061239b565b60405180910390fd5b610b3a848484846115fe565b50505050565b60606000610b4d8361165a565b604051602001610b5d9190612541565b60405160208183030381529060405290506000600a8054610b7d906121d3565b905011610b995760405180602001604052806000815250610bbd565b600a81604051602001610bad9291906125f7565b6040516020818303038152906040525b915050919050565b6000600560008473ffffffffffffffffffffffffffffffffffffffff1673ffffffffffffffffffffffffffffffffffffffff16815260200190815260200160002060008373ffffffffffffffffffffffffffffffffffffffff1673ffffffffffffffffffffffffffffffffffffffff16815260200190815260200160002060009054906101000a900460ff16905092915050565b610c61610d47565b600073ffffffffffffffffffffffffffffffffffffffff168173ffffffffffffffffffffffffffffffffffffffff161415610cd1576040517f08c379a0000000000000000000000000000000000000000000000000000000008152600401610cc89061268d565b60405180910390fd5b610cda816113cb565b50565b60007f01ffc9a7000000000000000000000000000000000000000000000000000000007bffffffffffffffffffffffffffffffffffffffffffffffffffffffff1916827bffffffffffffffffffffffffffffffffffffffffffffffffffffffff1916149050919050565b610d4f610e10565b73ffffffffffffffffffffffffffffffffffffffff16610d6d6109ce565b73ffffffffffffffffffffffffffffffffffffffff1614610dc3576040517f08c379a0000000000000000000000000000000000000000000000000000000008152600401610dba906126f9565b60405180910390fd5b565b610dce816117bb565b610e0d576040517f08c379a0000000000000000000000000000000000000000000000000000000008152600401610e0490612407565b60405180910390fd5b50565b600033905090565b816004600083815260200190815260200160002060006101000a81548173ffffffffffffffffffffffffffffffffffffffff021916908373ffffffffffffffffffffffffffffffffffffffff160217905550808273ffffffffffffffffffffffffffffffffffffffff16610e8b83610850565b73ffffffffffffffffffffffffffffffffffffffff167f8c5be1e5ebec7d5bd14f71427d1e84f3dd0314c0f7b2291e5b200ac8c7c3b92560405160405180910390a45050565b600081600001549050919050565b600073ffffffffffffffffffffffffffffffffffffffff168273ffffffffffffffffffffffffffffffffffffffff161415610f4f576040517f08c379a0000000000000000000000000000000000000000000000000000000008152600401610f4690612765565b60405180910390fd5b610f58816117bb565b15610f98576040517f08c379a0000000000000000000000000000000000000000000000000000000008152600401610f8f906127d1565b60405180910390fd5b610fa460008383611827565b6001600360008473ffffffffffffffffffffffffffffffffffffffff1673ffffffffffffffffffffffffffffffffffffffff1681526020019081526020016000206000828254610ff491906127f1565b92505081905550816002600083815260200190815260200160002060006101000a81548173ffffffffffffffffffffffffffffffffffffffff021916908373ffffffffffffffffffffffffffffffffffffffff160217905550808273ffffffffffffffffffffffffffffffffffffffff16600073ffffffffffffffffffffffffffffffffffffffff167fddf252ad1be2c89b69c2b068fc378daa952ba7f163c4a11628f55a4df523b3ef60405160405180910390a46110b56000838361182c565b5050565b6001816000016000828254019250508190555050565b6000806110db83610850565b90508073ffffffffffffffffffffffffffffffffffffffff168473ffffffffffffffffffffffffffffffffffffffff16148061111d575061111c8185610bc5565b5b8061115b57508373ffffffffffffffffffffffffffffffffffffffff16611143846105b3565b73ffffffffffffffffffffffffffffffffffffffff16145b91505092915050565b8273ffffffffffffffffffffffffffffffffffffffff1661118482610850565b73ffffffffffffffffffffffffffffffffffffffff16146111da576040517f08c379a00000000000000000000000000000000000000000000000000000000081526004016111d1906128b9565b60405180910390fd5b600073ffffffffffffffffffffffffffffffffffffffff168273ffffffffffffffffffffffffffffffffffffffff16141561124a576040517f08c379a00000000000000000000000000000000000000000000000000000000081526004016112419061294b565b60405180910390fd5b611255838383611827565b611260600082610e18565b6001600360008573ffffffffffffffffffffffffffffffffffffffff1673ffffffffffffffffffffffffffffffffffffffff16815260200190815260200160002060008282546112b0919061296b565b925050819055506001600360008473ffffffffffffffffffffffffffffffffffffffff1673ffffffffffffffffffffffffffffffffffffffff168152602001908152602001600020600082825461130791906127f1565b92505081905550816002600083815260200190815260200160002060006101000a81548173ffffffffffffffffffffffffffffffffffffffff021916908373ffffffffffffffffffffffffffffffffffffffff160217905550808273ffffffffffffffffffffffffffffffffffffffff168473ffffffffffffffffffffffffffffffffffffffff167fddf252ad1be2c89b69c2b068fc378daa952ba7f163c4a11628f55a4df523b3ef60405160405180910390a46113c683838361182c565b505050565b6000600760009054906101000a900473ffffffffffffffffffffffffffffffffffffffff16905081600760006101000a81548173ffffffffffffffffffffffffffffffffffffffff021916908373ffffffffffffffffffffffffffffffffffffffff1602179055508173ffffffffffffffffffffffffffffffffffffffff168173ffffffffffffffffffffffffffffffffffffffff167f8be0079c531659141344cd1fd0a4f28419497f9722a3daafe3b4186f6b6457e060405160405180910390a35050565b8173ffffffffffffffffffffffffffffffffffffffff168373ffffffffffffffffffffffffffffffffffffffff161415611500576040517f08c379a00000000000000000000000000000000000000000000000000000000081526004016114f7906129eb565b60405180910390fd5b80600560008573ffffffffffffffffffffffffffffffffffffffff1673ffffffffffffffffffffffffffffffffffffffff16815260200190815260200160002060008473ffffffffffffffffffffffffffffffffffffffff1673ffffffffffffffffffffffffffffffffffffffff16815260200190815260200160002060006101000a81548160ff0219169083151502179055508173ffffffffffffffffffffffffffffffffffffffff168373ffffffffffffffffffffffffffffffffffffffff167f17307eab39ab6107e8899845ad3d59bd9653f200f220920489ca2b5937696c31836040516115f19190611b33565b60405180910390a3505050565b611609848484611164565b61161584848484611831565b611654576040517f08c379a000000000000000000000000000000000000000000000000000000000815260040161164b90612a7d565b60405180910390fd5b50505050565b606060008214156116a2576040518060400160405280600181526020017f300000000000000000000000000000000000000000000000000000000000000081525090506117b6565b600082905060005b600082146116d45780806116bd9061215b565b915050600a826116cd9190612acc565b91506116aa565b60008167ffffffffffffffff8111156116f0576116ef611d91565b5b6040519080825280601f01601f1916602001820160405280156117225781602001600182028036833780820191505090505b5090505b600085146117af5760018261173b919061296b565b9150600a8561174a9190612afd565b603061175691906127f1565b60f81b81838151811061176c5761176b612b2e565b5b60200101907effffffffffffffffffffffffffffffffffffffffffffffffffffffffffffff1916908160001a905350600a856117a89190612acc565b9450611726565b8093505050505b919050565b60008073ffffffffffffffffffffffffffffffffffffffff166002600084815260200190815260200160002060009054906101000a900473ffffffffffffffffffffffffffffffffffffffff1673ffffffffffffffffffffffffffffffffffffffff1614159050919050565b505050565b505050565b60006118528473ffffffffffffffffffffffffffffffffffffffff166119b9565b156119ac578373ffffffffffffffffffffffffffffffffffffffff1663150b7a0261187b610e10565b8786866040518563ffffffff1660e01b815260040161189d9493929190612bb2565b6020604051808303816000875af19250505080156118d957506040513d601f19601f820116820180604052508101906118d69190612c13565b60015b61195c573d8060008114611909576040519150601f19603f3d011682016040523d82523d6000602084013e61190e565b606091505b50600081511415611954576040517f08c379a000000000000000000000000000000000000000000000000000000000815260040161194b90612a7d565b60405180910390fd5b805181602001fd5b63150b7a0260e01b7bffffffffffffffffffffffffffffffffffffffffffffffffffffffff1916817bffffffffffffffffffffffffffffffffffffffffffffffffffffffff1916149150506119b1565b600190505b949350505050565b6000808273ffffffffffffffffffffffffffffffffffffffff163b119050919050565b8280546119e8906121d3565b90600052602060002090601f016020900481019282611a0a5760008555611a51565b82601f10611a2357805160ff1916838001178555611a51565b82800160010185558215611a51579182015b82811115611a50578251825591602001919060010190611a35565b5b509050611a5e9190611a62565b5090565b5b80821115611a7b576000816000905550600101611a63565b5090565b6000604051905090565b600080fd5b600080fd5b60007fffffffff0000000000000000000000000000000000000000000000000000000082169050919050565b611ac881611a93565b8114611ad357600080fd5b50565b600081359050611ae581611abf565b92915050565b600060208284031215611b0157611b00611a89565b5b6000611b0f84828501611ad6565b91505092915050565b60008115159050919050565b611b2d81611b18565b82525050565b6000602082019050611b486000830184611b24565b92915050565b6000819050919050565b611b6181611b4e565b8114611b6c57600080fd5b50565b600081359050611b7e81611b58565b92915050565b600060208284031215611b9a57611b99611a89565b5b6000611ba884828501611b6f565b91505092915050565b600081519050919050565b600082825260208201905092915050565b60005b83811015611beb578082015181840152602081019050611bd0565b83811115611bfa576000848401525b50505050565b6000601f19601f8301169050919050565b6000611c1c82611bb1565b611c268185611bbc565b9350611c36818560208601611bcd565b611c3f81611c00565b840191505092915050565b60006020820190508181036000830152611c648184611c11565b905092915050565b600073ffffffffffffffffffffffffffffffffffffffff82169050919050565b6000611c9782611c6c565b9050919050565b611ca781611c8c565b82525050565b6000602082019050611cc26000830184611c9e565b92915050565b611cd181611c8c565b8114611cdc57600080fd5b50565b600081359050611cee81611cc8565b92915050565b60008060408385031215611d0b57611d0a611a89565b5b6000611d1985828601611cdf565b9250506020611d2a85828601611b6f565b9150509250929050565b600080600060608486031215611d4d57611d4c611a89565b5b6000611d5b86828701611cdf565b9350506020611d6c86828701611cdf565b9250506040611d7d86828701611b6f565b9150509250925092565b600080fd5b600080fd5b7f4e487b7100000000000000000000000000000000000000000000000000000000600052604160045260246000fd5b611dc982611c00565b810181811067ffffffffffffffff82111715611de857611de7611d91565b5b80604052505050565b6000611dfb611a7f565b9050611e078282611dc0565b919050565b600067ffffffffffffffff821115611e2757611e26611d91565b5b611e3082611c00565b9050602081019050919050565b82818337600083830152505050565b6000611e5f611e5a84611e0c565b611df1565b905082815260208101848484011115611e7b57611e7a611d8c565b5b611e86848285611e3d565b509392505050565b600082601f830112611ea357611ea2611d87565b5b8135611eb3848260208601611e4c565b91505092915050565b600060208284031215611ed257611ed1611a89565b5b600082013567ffffffffffffffff811115611ef057611eef611a8e565b5b611efc84828501611e8e565b91505092915050565b600060208284031215611f1b57611f1a611a89565b5b6000611f2984828501611cdf565b91505092915050565b611f3b81611b4e565b82525050565b6000602082019050611f566000830184611f32565b92915050565b611f6581611b18565b8114611f7057600080fd5b50565b600081359050611f8281611f5c565b92915050565b60008060408385031215611f9f57611f9e611a89565b5b6000611fad85828601611cdf565b9250506020611fbe85828601611f73565b9150509250929050565b600067ffffffffffffffff821115611fe357611fe2611d91565b5b611fec82611c00565b9050602081019050919050565b600061200c61200784611fc8565b611df1565b90508281526020810184848401111561202857612027611d8c565b5b612033848285611e3d565b509392505050565b600082601f8301126120505761204f611d87565b5b8135612060848260208601611ff9565b91505092915050565b6000806000806080858703121561208357612082611a89565b5b600061209187828801611cdf565b94505060206120a287828801611cdf565b93505060406120b387828801611b6f565b925050606085013567ffffffffffffffff8111156120d4576120d3611a8e565b5b6120e08782880161203b565b91505092959194509250565b6000806040838503121561210357612102611a89565b5b600061211185828601611cdf565b925050602061212285828601611cdf565b9150509250929050565b7f4e487b7100000000000000000000000000000000000000000000000000000000600052601160045260246000fd5b600061216682611b4e565b91507fffffffffffffffffffffffffffffffffffffffffffffffffffffffffffffffff8214156121995761219861212c565b5b600182019050919050565b7f4e487b7100000000000000000000000000000000000000000000000000000000600052602260045260246000fd5b600060028204905060018216806121eb57607f821691505b602082108114156121ff576121fe6121a4565b5b50919050565b7f4552433732313a20617070726f76616c20746f2063757272656e74206f776e6560008201527f7200000000000000000000000000000000000000000000000000000000000000602082015250565b6000612261602183611bbc565b915061226c82612205565b604082019050919050565b6000602082019050818103600083015261229081612254565b9050919050565b7f4552433732313a20617070726f76652063616c6c6572206973206e6f7420746f60008201527f6b656e206f776e6572206e6f7220617070726f76656420666f7220616c6c0000602082015250565b60006122f3603e83611bbc565b91506122fe82612297565b604082019050919050565b60006020820190508181036000830152612322816122e6565b9050919050565b7f4552433732313a2063616c6c6572206973206e6f7420746f6b656e206f776e6560008201527f72206e6f7220617070726f766564000000000000000000000000000000000000602082015250565b6000612385602e83611bbc565b915061239082612329565b604082019050919050565b600060208201905081810360008301526123b481612378565b9050919050565b7f4552433732313a20696e76616c696420746f6b656e2049440000000000000000600082015250565b60006123f1601883611bbc565b91506123fc826123bb565b602082019050919050565b60006020820190508181036000830152612420816123e4565b9050919050565b7f4552433732313a2061646472657373207a65726f206973206e6f74206120766160008201527f6c6964206f776e65720000000000000000000000000000000000000000000000602082015250565b6000612483602983611bbc565b915061248e82612427565b604082019050919050565b600060208201905081810360008301526124b281612476565b9050919050565b600081905092915050565b60006124cf82611bb1565b6124d981856124b9565b93506124e9818560208601611bcd565b80840191505092915050565b7f2e6a736f6e000000000000000000000000000000000000000000000000000000600082015250565b600061252b6005836124b9565b9150612536826124f5565b600582019050919050565b600061254d82846124c4565b91506125588261251e565b915081905092915050565b60008190508160005260206000209050919050565b60008154612585816121d3565b61258f81866124b9565b945060018216600081146125aa57600181146125bb576125ee565b60ff198316865281860193506125ee565b6125c485612563565b60005b838110156125e6578154818901526001820191506020810190506125c7565b838801955050505b50505092915050565b60006126038285612578565b915061260f82846124c4565b91508190509392505050565b7f4f776e61626c653a206e6577206f776e657220697320746865207a65726f206160008201527f6464726573730000000000000000000000000000000000000000000000000000602082015250565b6000612677602683611bbc565b91506126828261261b565b604082019050919050565b600060208201905081810360008301526126a68161266a565b9050919050565b7f4f776e61626c653a2063616c6c6572206973206e6f7420746865206f776e6572600082015250565b60006126e3602083611bbc565b91506126ee826126ad565b602082019050919050565b60006020820190508181036000830152612712816126d6565b9050919050565b7f4552433732313a206d696e7420746f20746865207a65726f2061646472657373600082015250565b600061274f602083611bbc565b915061275a82612719565b602082019050919050565b6000602082019050818103600083015261277e81612742565b9050919050565b7f4552433732313a20746f6b656e20616c7265616479206d696e74656400000000600082015250565b60006127bb601c83611bbc565b91506127c682612785565b602082019050919050565b600060208201905081810360008301526127ea816127ae565b9050919050565b60006127fc82611b4e565b915061280783611b4e565b9250827fffffffffffffffffffffffffffffffffffffffffffffffffffffffffffffffff0382111561283c5761283b61212c565b5b828201905092915050565b7f4552433732313a207472616e736665722066726f6d20696e636f72726563742060008201527f6f776e6572000000000000000000000000000000000000000000000000000000602082015250565b60006128a3602583611bbc565b91506128ae82612847565b604082019050919050565b600060208201905081810360008301526128d281612896565b9050919050565b7f4552433732313a207472616e7366657220746f20746865207a65726f2061646460008201527f7265737300000000000000000000000000000000000000000000000000000000602082015250565b6000612935602483611bbc565b9150612940826128d9565b604082019050919050565b6000602082019050818103600083015261296481612928565b9050919050565b600061297682611b4e565b915061298183611b4e565b9250828210156129945761299361212c565b5b828203905092915050565b7f4552433732313a20617070726f766520746f2063616c6c657200000000000000600082015250565b60006129d5601983611bbc565b91506129e08261299f565b602082019050919050565b60006020820190508181036000830152612a04816129c8565b9050919050565b7f4552433732313a207472616e7366657220746f206e6f6e20455243373231526560008201527f63656976657220696d706c656d656e7465720000000000000000000000000000602082015250565b6000612a67603283611bbc565b9150612a7282612a0b565b604082019050919050565b60006020820190508181036000830152612a9681612a5a565b9050919050565b7f4e487b7100000000000000000000000000000000000000000000000000000000600052601260045260246000fd5b6000612ad782611b4e565b9150612ae283611b4e565b925082612af257612af1612a9d565b5b828204905092915050565b6000612b0882611b4e565b9150612b1383611b4e565b925082612b2357612b22612a9d565b5b828206905092915050565b7f4e487b7100000000000000000000000000000000000000000000000000000000600052603260045260246000fd5b600081519050919050565b600082825260208201905092915050565b6000612b8482612b5d565b612b8e8185612b68565b9350612b9e818560208601611bcd565b612ba781611c00565b840191505092915050565b6000608082019050612bc76000830187611c9e565b612bd46020830186611c9e565b612be16040830185611f32565b8181036060830152612bf38184612b79565b905095945050505050565b600081519050612c0d81611abf565b92915050565b600060208284031215612c2957612c28611a89565b5b6000612c3784828501612bfe565b9150509291505056fea2646970667358221220cbff81369f57499b2b40aea75b273e24018a025d6816212395cb4431ea4a0d0764736f6c634300080a0033",
  "linkReferences": {},
  "deployedLinkReferences": {}
}