{
  "_format": "hh-sol-artifact-1",
  "contractName": "NFTREWARDS",
  "sourceName": "contracts/Reward.sol",
  "abi": [
    {
      "inputs": [
        {
          "internalType": "address",
          "name": "_busdAddress",
          "type": "address"
        },
        {
          "internalType": "address",
          "name": "_vaultAddress",
          "type": "address"
        }
      ],
      "stateMutability": "nonpayable",
      "type": "constructor"
    },
    {
      "anonymous": false,
      "inputs": [
        {
          "indexed": true,
          "internalType": "address",
          "name": "previousOwner",
          "type": "address"
        },
        {
          "indexed": true,
          "internalType": "address",
          "name": "newOwner",
          "type": "address"
        }
      ],
      "name": "OwnershipTransferred",
      "type": "event"
    },
    {
      "inputs": [],
      "name": "VaultAddress",
      "outputs": [
        {
          "internalType": "address",
          "name": "",
          "type": "address"
        }
      ],
      "stateMutability": "view",
      "type": "function"
    },
    {
      "inputs": [
        {
          "internalType": "address",
          "name": "nftAddress",
          "type": "address"
        }
      ],
      "name": "_claimReward",
      "outputs": [
        {
          "internalType": "uint256",
          "name": "",
          "type": "uint256"
        }
      ],
      "stateMutability": "view",
      "type": "function"
    },
    {
      "inputs": [
        {
          "internalType": "address",
          "name": "nftAddress",
          "type": "address"
        }
      ],
      "name": "claimReward",
      "outputs": [],
      "stateMutability": "nonpayable",
      "type": "function"
    },
    {
      "inputs": [],
      "name": "owner",
      "outputs": [
        {
          "internalType": "address",
          "name": "",
          "type": "address"
        }
      ],
      "stateMutability": "view",
      "type": "function"
    },
    {
      "inputs": [],
      "name": "renounceOwnership",
      "outputs": [],
      "stateMutability": "nonpayable",
      "type": "function"
    },
    {
      "inputs": [
        {
          "internalType": "address",
          "name": "contractAddress",
          "type": "address"
        },
        {
          "internalType": "address",
          "name": "userAddr",
          "type": "address"
        }
      ],
      "name": "startReward",
      "outputs": [],
      "stateMutability": "nonpayable",
      "type": "function"
    },
    {
      "inputs": [
        {
          "internalType": "address",
          "name": "newOwner",
          "type": "address"
        }
      ],
      "name": "transferOwnership",
      "outputs": [],
      "stateMutability": "nonpayable",
      "type": "function"
    },
    {
      "inputs": [
        {
          "internalType": "address",
          "name": "",
          "type": "address"
        },
        {
          "internalType": "address",
          "name": "",
          "type": "address"
        }
      ],
      "name": "users",
      "outputs": [
        {
          "internalType": "uint256",
          "name": "deposits",
          "type": "uint256"
        },
        {
          "internalType": "uint256",
          "name": "reward_time",
          "type": "uint256"
        },
        {
          "internalType": "uint256",
          "name": "payoutsBusd",
          "type": "uint256"
        }
      ],
      "stateMutability": "view",
      "type": "function"
    },
    {
      "inputs": [],
      "name": "vault",
      "outputs": [
        {
          "internalType": "contract Vault",
          "name": "",
          "type": "address"
        }
      ],
      "stateMutability": "view",
      "type": "function"
    }
  ],
  "bytecode": "0x60806040526019600555601e60065560236007556028600855602d6009556032600a5568056bc75e2d63100000600b55680ad78ebc5ac6200000600c55681b1ae4d6e2ef500000600d55683635c9adc5dea00000600e55686c6b935b8bbd400000600f5569010f0cf064dd592000006010553480156200007e57600080fd5b5060405162001c9838038062001c988339818101604052810190620000a49190620002c5565b620000c4620000b86200018f60201b60201c565b6200019760201b60201c565b81600360006101000a81548173ffffffffffffffffffffffffffffffffffffffff021916908373ffffffffffffffffffffffffffffffffffffffff16021790555080600260006101000a81548173ffffffffffffffffffffffffffffffffffffffff021916908373ffffffffffffffffffffffffffffffffffffffff16021790555080600460006101000a81548173ffffffffffffffffffffffffffffffffffffffff021916908373ffffffffffffffffffffffffffffffffffffffff16021790555050506200030c565b600033905090565b60008060009054906101000a900473ffffffffffffffffffffffffffffffffffffffff169050816000806101000a81548173ffffffffffffffffffffffffffffffffffffffff021916908373ffffffffffffffffffffffffffffffffffffffff1602179055508173ffffffffffffffffffffffffffffffffffffffff168173ffffffffffffffffffffffffffffffffffffffff167f8be0079c531659141344cd1fd0a4f28419497f9722a3daafe3b4186f6b6457e060405160405180910390a35050565b600080fd5b600073ffffffffffffffffffffffffffffffffffffffff82169050919050565b60006200028d8262000260565b9050919050565b6200029f8162000280565b8114620002ab57600080fd5b50565b600081519050620002bf8162000294565b92915050565b60008060408385031215620002df57620002de6200025b565b5b6000620002ef85828601620002ae565b92505060206200030285828601620002ae565b9150509250929050565b61197c806200031c6000396000f3fe608060405234801561001057600080fd5b50600436106100935760003560e01c80639f544b3e116100665780639f544b3e14610122578063a2a4a7881461013e578063d279c1911461015c578063f2fde38b14610178578063fbfa77cf1461019457610093565b80635e80536a1461009857806361a68248146100ca578063715018a6146100fa5780638da5cb5b14610104575b600080fd5b6100b260048036038101906100ad9190611363565b6101b2565b6040516100c1939291906113bc565b60405180910390f35b6100e460048036038101906100df91906113f3565b6101e9565b6040516100f19190611420565b60405180910390f35b610102610b94565b005b61010c610ba8565b604051610119919061144a565b60405180910390f35b61013c60048036038101906101379190611363565b610bd1565b005b610146610c59565b604051610153919061144a565b60405180910390f35b610176600480360381019061017191906113f3565b610c7f565b005b610192600480360381019061018d91906113f3565b61104a565b005b61019c6110ce565b6040516101a991906114c4565b60405180910390f35b6001602052816000526040600020602052806000526040600020600091509150508060000154908060010154908060020154905083565b6000808273ffffffffffffffffffffffffffffffffffffffff166370a08231336040518263ffffffff1660e01b8152600401610225919061144a565b602060405180830381865afa158015610242573d6000803e3d6000fd5b505050506040513d601f19601f82011682018060405250810190610266919061150b565b14156102755760009050610b8f565b6000600160008473ffffffffffffffffffffffffffffffffffffffff1673ffffffffffffffffffffffffffffffffffffffff16815260200190815260200160002060003373ffffffffffffffffffffffffffffffffffffffff1673ffffffffffffffffffffffffffffffffffffffff1681526020019081526020016000206001015414156103065760009050610b8f565b60008273ffffffffffffffffffffffffffffffffffffffff166370a08231336040518263ffffffff1660e01b8152600401610341919061144a565b602060405180830381865afa15801561035e573d6000803e3d6000fd5b505050506040513d601f19601f82011682018060405250810190610382919061150b565b905061038d816110f4565b600080600b548573ffffffffffffffffffffffffffffffffffffffff1663a035b1fe6040518163ffffffff1660e01b8152600401602060405180830381865afa1580156103de573d6000803e3d6000fd5b505050506040513d601f19601f82011682018060405250810190610402919061150b565b116104e45761016d6064600b5460055461041c9190611567565b61042691906115f0565b61043091906115f0565b9150600160008673ffffffffffffffffffffffffffffffffffffffff1673ffffffffffffffffffffffffffffffffffffffff16815260200190815260200160002060003373ffffffffffffffffffffffffffffffffffffffff1673ffffffffffffffffffffffffffffffffffffffff16815260200190815260200160002060010154426104bd9190611621565b62015180836104cc91906115f0565b846104d79190611567565b6104e19190611567565b90505b600c548573ffffffffffffffffffffffffffffffffffffffff1663a035b1fe6040518163ffffffff1660e01b8152600401602060405180830381865afa158015610532573d6000803e3d6000fd5b505050506040513d601f19601f82011682018060405250810190610556919061150b565b116106385761016d6064600c546006546105709190611567565b61057a91906115f0565b61058491906115f0565b9150600160008673ffffffffffffffffffffffffffffffffffffffff1673ffffffffffffffffffffffffffffffffffffffff16815260200190815260200160002060003373ffffffffffffffffffffffffffffffffffffffff1673ffffffffffffffffffffffffffffffffffffffff16815260200190815260200160002060010154426106119190611621565b620151808361062091906115f0565b8461062b9190611567565b6106359190611567565b90505b600d548573ffffffffffffffffffffffffffffffffffffffff1663a035b1fe6040518163ffffffff1660e01b8152600401602060405180830381865afa158015610686573d6000803e3d6000fd5b505050506040513d601f19601f820116820180604052508101906106aa919061150b565b1161078c5761016d6064600d546007546106c49190611567565b6106ce91906115f0565b6106d891906115f0565b9150600160008673ffffffffffffffffffffffffffffffffffffffff1673ffffffffffffffffffffffffffffffffffffffff16815260200190815260200160002060003373ffffffffffffffffffffffffffffffffffffffff1673ffffffffffffffffffffffffffffffffffffffff16815260200190815260200160002060010154426107659190611621565b620151808361077491906115f0565b8461077f9190611567565b6107899190611567565b90505b600e548573ffffffffffffffffffffffffffffffffffffffff1663a035b1fe6040518163ffffffff1660e01b8152600401602060405180830381865afa1580156107da573d6000803e3d6000fd5b505050506040513d601f19601f820116820180604052508101906107fe919061150b565b116108e05761016d6064600e546008546108189190611567565b61082291906115f0565b61082c91906115f0565b9150600160008673ffffffffffffffffffffffffffffffffffffffff1673ffffffffffffffffffffffffffffffffffffffff16815260200190815260200160002060003373ffffffffffffffffffffffffffffffffffffffff1673ffffffffffffffffffffffffffffffffffffffff16815260200190815260200160002060010154426108b99190611621565b62015180836108c891906115f0565b846108d39190611567565b6108dd9190611567565b90505b600f548573ffffffffffffffffffffffffffffffffffffffff1663a035b1fe6040518163ffffffff1660e01b8152600401602060405180830381865afa15801561092e573d6000803e3d6000fd5b505050506040513d601f19601f82011682018060405250810190610952919061150b565b11610a345761016d6064600f5460095461096c9190611567565b61097691906115f0565b61098091906115f0565b9150600160008673ffffffffffffffffffffffffffffffffffffffff1673ffffffffffffffffffffffffffffffffffffffff16815260200190815260200160002060003373ffffffffffffffffffffffffffffffffffffffff1673ffffffffffffffffffffffffffffffffffffffff1681526020019081526020016000206001015442610a0d9190611621565b6201518083610a1c91906115f0565b84610a279190611567565b610a319190611567565b90505b6010548573ffffffffffffffffffffffffffffffffffffffff1663a035b1fe6040518163ffffffff1660e01b8152600401602060405180830381865afa158015610a82573d6000803e3d6000fd5b505050506040513d601f19601f82011682018060405250810190610aa6919061150b565b11610b885761016d6064601054600a54610ac09190611567565b610aca91906115f0565b610ad491906115f0565b9150600160008673ffffffffffffffffffffffffffffffffffffffff1673ffffffffffffffffffffffffffffffffffffffff16815260200190815260200160002060003373ffffffffffffffffffffffffffffffffffffffff1673ffffffffffffffffffffffffffffffffffffffff1681526020019081526020016000206001015442610b619190611621565b6201518083610b7091906115f0565b84610b7b9190611567565b610b859190611567565b90505b8093505050505b919050565b610b9c61118d565b610ba6600061120b565b565b60008060009054906101000a900473ffffffffffffffffffffffffffffffffffffffff16905090565b42600160008473ffffffffffffffffffffffffffffffffffffffff1673ffffffffffffffffffffffffffffffffffffffff16815260200190815260200160002060008373ffffffffffffffffffffffffffffffffffffffff1673ffffffffffffffffffffffffffffffffffffffff168152602001908152602001600020600101819055505050565b600260009054906101000a900473ffffffffffffffffffffffffffffffffffffffff1681565b60008173ffffffffffffffffffffffffffffffffffffffff166370a08231336040518263ffffffff1660e01b8152600401610cba919061144a565b602060405180830381865afa158015610cd7573d6000803e3d6000fd5b505050506040513d601f19601f82011682018060405250810190610cfb919061150b565b11610d3b576040517f08c379a0000000000000000000000000000000000000000000000000000000008152600401610d32906116d8565b60405180910390fd5b6000610d46826101e9565b9050600460009054906101000a900473ffffffffffffffffffffffffffffffffffffffff1673ffffffffffffffffffffffffffffffffffffffff1663cc3bcaf3826040518263ffffffff1660e01b8152600401610da39190611420565b600060405180830381600087803b158015610dbd57600080fd5b505af1158015610dd1573d6000803e3d6000fd5b50505050600360009054906101000a900473ffffffffffffffffffffffffffffffffffffffff1673ffffffffffffffffffffffffffffffffffffffff1663a9059cbb33836040518363ffffffff1660e01b8152600401610e329291906116f8565b6020604051808303816000875af1158015610e51573d6000803e3d6000fd5b505050506040513d601f19601f82011682018060405250810190610e759190611759565b610eb4576040517f08c379a0000000000000000000000000000000000000000000000000000000008152600401610eab906117d2565b60405180910390fd5b42600160008473ffffffffffffffffffffffffffffffffffffffff1673ffffffffffffffffffffffffffffffffffffffff16815260200190815260200160002060003373ffffffffffffffffffffffffffffffffffffffff1673ffffffffffffffffffffffffffffffffffffffff1681526020019081526020016000206001018190555080600160008473ffffffffffffffffffffffffffffffffffffffff1673ffffffffffffffffffffffffffffffffffffffff16815260200190815260200160002060003373ffffffffffffffffffffffffffffffffffffffff1673ffffffffffffffffffffffffffffffffffffffff16815260200190815260200160002060020154610fc391906117f2565b600160008473ffffffffffffffffffffffffffffffffffffffff1673ffffffffffffffffffffffffffffffffffffffff16815260200190815260200160002060003373ffffffffffffffffffffffffffffffffffffffff1673ffffffffffffffffffffffffffffffffffffffff168152602001908152602001600020600201819055505050565b61105261118d565b600073ffffffffffffffffffffffffffffffffffffffff168173ffffffffffffffffffffffffffffffffffffffff1614156110c2576040517f08c379a00000000000000000000000000000000000000000000000000000000081526004016110b9906118ba565b60405180910390fd5b6110cb8161120b565b50565b600460009054906101000a900473ffffffffffffffffffffffffffffffffffffffff1681565b61118a816040516024016111089190611420565b6040516020818303038152906040527ff82c50f1000000000000000000000000000000000000000000000000000000007bffffffffffffffffffffffffffffffffffffffffffffffffffffffff19166020820180517bffffffffffffffffffffffffffffffffffffffffffffffffffffffff83818316178352505050506112cf565b50565b6111956112f8565b73ffffffffffffffffffffffffffffffffffffffff166111b3610ba8565b73ffffffffffffffffffffffffffffffffffffffff1614611209576040517f08c379a000000000000000000000000000000000000000000000000000000000815260040161120090611926565b60405180910390fd5b565b60008060009054906101000a900473ffffffffffffffffffffffffffffffffffffffff169050816000806101000a81548173ffffffffffffffffffffffffffffffffffffffff021916908373ffffffffffffffffffffffffffffffffffffffff1602179055508173ffffffffffffffffffffffffffffffffffffffff168173ffffffffffffffffffffffffffffffffffffffff167f8be0079c531659141344cd1fd0a4f28419497f9722a3daafe3b4186f6b6457e060405160405180910390a35050565b60008151905060006a636f6e736f6c652e6c6f679050602083016000808483855afa5050505050565b600033905090565b600080fd5b600073ffffffffffffffffffffffffffffffffffffffff82169050919050565b600061133082611305565b9050919050565b61134081611325565b811461134b57600080fd5b50565b60008135905061135d81611337565b92915050565b6000806040838503121561137a57611379611300565b5b60006113888582860161134e565b92505060206113998582860161134e565b9150509250929050565b6000819050919050565b6113b6816113a3565b82525050565b60006060820190506113d160008301866113ad565b6113de60208301856113ad565b6113eb60408301846113ad565b949350505050565b60006020828403121561140957611408611300565b5b60006114178482850161134e565b91505092915050565b600060208201905061143560008301846113ad565b92915050565b61144481611325565b82525050565b600060208201905061145f600083018461143b565b92915050565b6000819050919050565b600061148a61148561148084611305565b611465565b611305565b9050919050565b600061149c8261146f565b9050919050565b60006114ae82611491565b9050919050565b6114be816114a3565b82525050565b60006020820190506114d960008301846114b5565b92915050565b6114e8816113a3565b81146114f357600080fd5b50565b600081519050611505816114df565b92915050565b60006020828403121561152157611520611300565b5b600061152f848285016114f6565b91505092915050565b7f4e487b7100000000000000000000000000000000000000000000000000000000600052601160045260246000fd5b6000611572826113a3565b915061157d836113a3565b9250817fffffffffffffffffffffffffffffffffffffffffffffffffffffffffffffffff04831182151516156115b6576115b5611538565b5b828202905092915050565b7f4e487b7100000000000000000000000000000000000000000000000000000000600052601260045260246000fd5b60006115fb826113a3565b9150611606836113a3565b925082611616576116156115c1565b5b828204905092915050565b600061162c826113a3565b9150611637836113a3565b92508282101561164a57611649611538565b5b828203905092915050565b600082825260208201905092915050565b7f596f7520646f206e6f7420686176652061636365737320746f2074686973204e60008201527f4654000000000000000000000000000000000000000000000000000000000000602082015250565b60006116c2602283611655565b91506116cd82611666565b604082019050919050565b600060208201905081810360008301526116f1816116b5565b9050919050565b600060408201905061170d600083018561143b565b61171a60208301846113ad565b9392505050565b60008115159050919050565b61173681611721565b811461174157600080fd5b50565b6000815190506117538161172d565b92915050565b60006020828403121561176f5761176e611300565b5b600061177d84828501611744565b91505092915050565b7f6275736420746f6b656e207472616e73666572206661696c6564000000000000600082015250565b60006117bc601a83611655565b91506117c782611786565b602082019050919050565b600060208201905081810360008301526117eb816117af565b9050919050565b60006117fd826113a3565b9150611808836113a3565b9250827fffffffffffffffffffffffffffffffffffffffffffffffffffffffffffffffff0382111561183d5761183c611538565b5b828201905092915050565b7f4f776e61626c653a206e6577206f776e657220697320746865207a65726f206160008201527f6464726573730000000000000000000000000000000000000000000000000000602082015250565b60006118a4602683611655565b91506118af82611848565b604082019050919050565b600060208201905081810360008301526118d381611897565b9050919050565b7f4f776e61626c653a2063616c6c6572206973206e6f7420746865206f776e6572600082015250565b6000611910602083611655565b915061191b826118da565b602082019050919050565b6000602082019050818103600083015261193f81611903565b905091905056fea2646970667358221220a76406f63e09cabee3756edb940f0be77bd717d977d2a063ddc80b551eb15b5264736f6c634300080a0033",
  "linkReferences": {},
  "deployedLinkReferences": {}
}